:020000040800F2
:10000000601200207502000825660008D54400082B
:100010002166000809230008596B00080000000051
:10002000000000000000000000000000C56600089D
:10003000CD2D000800000000C1660008C966000858
:100040008F0200088F0200088F0200088F0200084C
:100050008F0200088F0200088F0200088F0200083C
:100060008F0200088F0200088F020008912D0008FF
:100070009D2D00088F0200088F0200088F020008E3
:10008000A92D00088F0200088F0200088F020008C7
:100090008F0200088F0200088F0200088F020008FC
:1000A0008F0200088F0200088F0200088F020008EC
:1000B0008F0200088F0200088F0200088F020008DC
:1000C0008F0200088F0200088F0200088F020008CC
:1000D0008F020008296B0008356B0008416B00088F
:1000E0008F0200088F0200088F0200088F020008AC
:1000F0008F0200088F0200088F0200088F0200089C
:100100008F0200088F0200088F0200088F0200088B
:100110008F020008896700088F0200088F0200081C
:100120008F020008B52D0008C12D00088F020008BD
:100130008F0200088F0200088F0200088F0200085B
:100140008F0200088F0200088F0200088F0200084B
:100150008F0200088F0200088F0200084D6B000814
:100160008F0200088F0200088F0200088F0200082B
:100170008F0200088F0200088F02000800000000B4
:100180008F0200088F02000800F002F800F063F808
:1001900014A696E8000CB244B344DA4501D100F04D
:1001A0005AF8BAE80F000FA696E83000A5EB040550
:1001B00004EB0607AAEB0704A7F101074FEA1515A0
:1001C0004FEA3414A4F10104AC4201D300F043F827
:1001D00013F0010F18BFFB1A43F0010300F001F800
:1001E000DBE718472C7500004C750000103A24BF5F
:1001F00078C878C1FAD8520724BF30C830C144BF8C
:1002000004680C6070470000704700000023002461
:1002100000250026103A28BF78C1FBD8520728BF16
:1002200030C148BF0B607047642900F043816329E7
:1002300000F0B283002070471FB507F031F900F0DD
:1002400007FC04000020002106F03EFD401C606019
:100250001FBD10B510BD00F00DFC1146FFF7ECFFFF
:1002600006F07CFC00F02BFC03B4FFF7F2FF03BCAC
:1002700000F06CFC0948804709480047FEE7FEE7AC
:10028000FEE7FEE7FEE7FEE7FEE7FEE7FEE7FEE746
:1002900004480549054A064B704700007567000889
:1002A00089010008600C002060120020600E002010
:1002B000600E0020004870471000002053EA020C36
:1002C00000F069802DE9F04B4FF00006002B1FBFB6
:1002D000B3FA83F503FA05F424FA05F65E4012BF7B
:1002E0001643B2FA82F502FA05F4C5F120051EBFE5
:1002F00022FA05FC44EA0C04203556EA044C4FEA85
:10030000144418BF641C4FF000084FF000099042DD
:1003100071EB030C39D3002919BFB1FA81F701FA47
:1003200007F6B0FA80F700FA07F6C7F120071EBFFC
:1003300020FA07FC46EA0C062037B6FBF4FCA7EBD4
:100340000507103F07F01F0BCBF120062CFA06F62D
:100350000CFA0BFB44BFB3460026202FA4BF5E4619
:100360004FF0000B5BEA060C08BF4FF0010B19EBD6
:100370000B0948EB0608ABFB027C06FB02CC0BFB2F
:1003800003CCC01B71EB0C01C1E70B460246414692
:100390004846BDE8F08B13B5084318BF4FF0FF3057
:1003A0000146AFF30080BDE81C40704753EA020CE1
:1003B00023D010B54C1084EA530404D54042C1F157
:1003C000000138BF491E1B4204D55242C3F100034D
:1003D00038BF5B1EFFF772FF14F0804F04D040421D
:1003E000C1F1000138BF491E14F0004F04D0524241
:1003F000C3F1000338BF5B1E10BD13B540424FF080
:10040000000070EB0104B8BF012001F0004100289A
:100410001CBF6FF000414FF0FF30AFF300801CBDF8
:100420000FB41CB50C0007AA009007D04142A142AE
:1004300002D32044401E01E04FF0FF30074B7B44C5
:1004400069460190069800F082FA0021002C01D044
:10045000009A11701CBC5DF814FB0000330500000D
:1004600070B50C460546012A05D02878800600D5CF
:10047000EA69002302E0012305E05B1C934202D2FB
:10048000E05C0028F9D1A869E618C01AA861286ABA
:10049000184428622846AFF3008004E0D5E9012122
:1004A00014F8010B9047B442F8D32846AFF300800C
:1004B00070BD00002DE9F041064600241068752942
:1004C000314616A510D0AFF30080002802DA404272
:1004D00013A507E031688A0701D512A502E0490794
:1004E00004D511A5012401E0AFF3008000210A2208
:1004F00006F1240709E0B0FBF2FCB0FBF2F302FBCB
:100500001C00303078541846491C0028F3D123468B
:100510002A463046BDE8F04100F0BBB900000000BB
:100520002D0000002B000000200000002DE9F0410C
:100530000F460546002028622846E968884770B3C0
:10054000252805D0D5E901219047286A401CF2E70B
:10055000E9682846002688476C2804460AD0682C9B
:1005600008D04C2C35D06A2C31D0742C31D07A2C58
:100570002FD016E0E968064628468847B042044670
:1005800008D16C2E23D04FF480662846E96888474E
:10059000044606E06C2E03D04FF4807601E01EE0A6
:1005A0004026E4B1A4F14100192802D8203446F4D1
:1005B00000663A46214628462E60FFF735FE60B1B8
:1005C000012808D0FF1D27F007070837B4E7802669
:1005D000DBE70026D9E73F1DAEE72046B2E7286AF1
:1005E000BDE8F0812DE9F04791460F46804604466C
:1005F000002614F8015B2DB100F038F90068405D69
:10060000C007F6D12B2D02D02D2D18D0641E4A46DE
:100610003946204600F0CCF927B13968A14201D112
:10062000C7F800804FF0020471050BD54042002846
:1006300003DDFFF73FFE0460A007BDE8F08746F446
:100640008066E4E70028F8DAFFF734FE04606FF014
:100650000040F2E7401ECAB210F8011F8A4202D0E1
:100660000029F9D10020704730B505460B462A46CF
:1006700013F8014B12F8010B08B1A042F8D01CB1DD
:10068000002802D06D1CF1E7284630BD40EA010386
:1006900070B59B072ED14FF00136042A2AD308C823
:1006A00010C99D1B9D43121F15EAC61517D0D8B25D
:1006B000E1B2401A50EA056110D198B2A1B2401AD5
:1006C00050EA05410AD123F07F4024F07F41401ACF
:1006D00050EA052102D1180EA0EB146070BDA342B0
:1006E000DBD018BA21BA884201D9012070BD4FF081
:1006F000FF3070BD0AB9002070BD10F8013B11F841
:10070000014B63B1A3420AD1521E08D010F8013B3D
:1007100011F8014B1BB1A34201D1521EEDD1181BA0
:1007200070BD032A40F2308010F0030C00F01580F9
:1007300011F8013BBCF1020F624498BF11F801CBE4
:1007400000F8013B38BF11F8013BA2F1040298BF49
:1007500000F801CB38BF00F8013B11F0030300F0B3
:100760002580083AC0F0088051F8043B083A51F857
:1007700004CBA0E80810F5E7121D5CBF51F8043B5C
:1007800040F8043BAFF30080D20724BF11F8013BCF
:1007900011F801CB48BF11F8012B24BF00F8013B31
:1007A00000F801CB48BF00F8012B704710B5203A84
:1007B000C0F00B80B1E81850A0E81850B1E818500C
:1007C000A0E81850203ABFF4F5AF5FEA027C24BFDE
:1007D000B1E81850A0E8185044BF18C918C0BDE8C7
:1007E00010405FEA827C24BF51F8043B40F8043B90
:1007F00008BF7047D20728BF31F8023B48BF11F845
:10080000012B28BF20F8023B48BF00F8012B70479E
:100810004FF0000200B5134694469646203922BF99
:10082000A0E80C50A0E80C50B1F12001BFF4F7AFE4
:10083000090728BFA0E80C5048BF0CC05DF804EBC6
:10084000890028BF40F8042B08BF704748BF20F834
:10085000022B11F0804F18BF00F8012B7047704732
:1008600070477047004870471000002010B500F036
:10087000EFF8001D10BD00BF5164000010B5FFF778
:1008800019FD006810BD10B50446FFF713FD0460A4
:1008900010BD2DE9F0470D4699469246044600F1F9
:1008A00024080168880604D5E06921F01001216060
:1008B00000E00120A84201DD471B00E00027A169FC
:1008C0007A1902EB0900081AA0612078C00602D448
:1008D0002046AFF30080002608E0D4E901211AF891
:1008E00006009047206A401C761C20624E45F4DBCF
:1008F0002078C0060AD52046AFF3008006E0D4E990
:10090000012130209047206A401C2062381EA7F148
:100910000107F4DC07E0D4E9012118F8050090474D
:10092000206A401C2062281EA5F10105F3DC204648
:10093000AFF300802078000602D50220BDE8F087E2
:100940000120FBE701694A1C02610878704700B585
:100950008FB0CDE901310021059105497944CDE9F8
:10096000031011466846FFF7E1FD0FB000BD00001F
:10097000E5FFFFFFD1E900239A4202D2531C0B602E
:100980001070704710B5436913B1AFF3008001E0F8
:10099000FFF766FD012010BD127800F124010A70F6
:1009A00000224A700122EDE711684FF0FF32E9E7BB
:1009B0002DE9F05F824615468B4600270AF10104B7
:1009C000B9460078302801D09DB113E014F8010B2E
:1009D0000127782803D0582801D045B10AE00DB18D
:1009E000102D07D1002714F8010B102502E008256F
:1009F00000E00A250026B0460EE005FB080005FBD6
:100A000006F101271FFA80F801EB1046B6F5803F8A
:100A100000D3B94614F8010B294600F01DF8002850
:100A2000EBDABBF1000F05D00FB1641E00E05446B5
:100A3000CBF80040B9F1000F06D0FFF73BFC0221D4
:100A40000160C81EBDE8F09F48EA0640FAE70000D2
:100A500000487047300000203A2800D2303820F09B
:100A60002002412A01D3A2F13700884201D34FF07E
:100A7000FF3070477546FFF7F5FEAE460500694644
:100A8000534620F00700854618B020B5FFF700FC5C
:100A9000BDE820404FF000064FF000074FF000087F
:100AA0004FF0000BAC46ACE8C009ACE8C009ACE8BC
:100AB000C009ACE8C00921F007018D46704710B5A8
:100AC0000446AFF300802046BDE81040FFF7CCBBE2
:100AD00030B44FF0013C50F8042B51F8043BCCFAF1
:100AE00052F4D51A20D1FCB950F8042B51F8043B2C
:100AF000CCFA52F4D51A17D1B4B950F8042B51F8E6
:100B0000043BCCFA52F4D51A0ED16CB950F8042B30
:100B100051F8043BCCFA52F4D51A05D1002CDAD0A6
:100B200030BC4FF00000704729BAB1FA81F111F0E2
:100B30001801D1F120008440F2D1CA40CB4012F01C
:100B4000FF0213F0FF0330BCD01A70470149182090
:100B5000ABBEFEE726000200704700002DE9F04F13
:100B600040F2601C40F6383EC2F2000CC2F2000EA9
:100B70000CF14A090EF1550B0CF147000EF154022D
:100B800000244FF09C0A002610E000BF002C2646EF
:100B900018BF0126002C04F1010409F19C090BF196
:100BA000900B00F19C0002F190025AD104FB0AC79D
:100BB000B97DA9B94FF0FF35494600BF012D07D0D7
:100BC00011F8348B0135B8F1000FF7D0022D07D39F
:100BD00004EBC4010EEB011191F8251031B300BFF5
:100BE0000125002D3DD1F97CD9B34FF0FF350146E9
:100BF000012D06D011F8343B0135002BF8D1022D20
:100C00002FD304EBC4010EEB011191F8241041B372
:100C10004FF0FF35114600BF012DB7D011F8303B22
:100C20000135002BF8D1022DB0D21AE04FF0FF357C
:100C3000594600BF012D06D011F8303B0135002B7D
:100C4000F8D0022DCCD340F68021C2F20001582307
:100C500004FB031191F84B50002D18BF0125002D06
:100C6000C1D006F00100BDE8F08F0000B0B501284A
:100C700088BFB0BD0C4640F27401C2F2000174227C
:100C800010FB0215686818B12989012202F076FB71
:100C9000294651F80A0B2246142303F081FB30B990
:100CA00040F2E420C2F2000001680131016068688E
:100CB00028B129890022BDE8B04002F05FBBB0BD79
:100CC0004FF6FF72C1B1B0B54FF0000C4AF2010E01
:100CD00010F80C305A406FF0070300BF8EEA520440
:100CE000D50708BF540801332246F7D30CF1010C95
:100CF0008C45EDD1BDE8B04090B2704710B500F022
:100D000031F838BB40F29924C2F20004207801285F
:100D100018BF10BD02F038FB40F26C51C2F2000166
:100D20000968401AFA2815D301F0F0FA40F2982029
:100D3000C2F2000001784FF0020C41F00101017095
:100D4000032000210022002384F800C0BDE81040E9
:100D500001F058BC10BD0000032000210022002338
:100D600001F050BC40F29C20C2F200000078002844
:100D700018BF01207047000002888178C07852BAFD
:100D800042EA016141EA004070470000002908BFC3
:100D900070472DE9F04140F2982CC2F2000C9CF80B
:100DA00000304A1E40F2703140F2723E40F2743818
:100DB000C2F20001C2F2000EC2F200080D886E1CE1
:100DC000BEF80050F6B2AE4206D143F002038CF8F2
:100DD0000030AE4207D10CE007780C8808F80470A8
:100DE0000E80AE4205D0002AA2F1010200F10100FE
:100DF000E4D1BDE8F04170472DE9F04FB9B002F001
:100E0000C3FA40F2703B40F2723EC2F2000BC2F2F3
:100E1000000EBBF80010BEF8002040F2B84A914224
:100E2000C2F2000A0A903ED1BAF80060C6B340F29E
:100E30007440C2F2000000680A99081A32282FD3C1
:100E400040F27844C2F20004751C40F2EC204FF0EE
:100E50000008C2F2000021462A4604F80680FFF787
:100E6000A5FC40F22C30C2F20000068040F22E3089
:100E7000C2F200000127077040F27050C2F2000079
:100E800021462A46FFF792FC40F2B050C2F2000021
:100E9000068040F2B250C2F200000770AAF800804B
:100EA00039B0BDE8F08F0DF12E06B01C099027A8CF
:100EB00040F2743702304FF40079C2F20007089014
:100EC000B9F1000FECD0BEF8000017F80080B8F1BF
:100ED000AA0F45D1BEF80000BBF800100130C0B227
:100EE000814203D101200021D1BBA2E0385C55280A
:100EF00031D1BBF80000BEF80010BBF800208842DA
:100F0000BEF8000038BF02F58072101A80B20828BF
:100F1000E8D3BEF800100631C9B2795CBEF80020F3
:100F20000732D2B2BA5C41EA0224A3B23D2BC0F030
:100F30008F8040F29821C2F20001087840F0020050
:100F40000870BEF8000000210130C0B2AEF8000009
:100F5000022029B96DE000200121002969D000BFDD
:100F6000BAF8004024B1B8F10A0F0AD10CE000BF72
:100F700040F274400A99C2F200000160B8F10A0F11
:100F800002D0B8F10D0F41D1002C4BD0D046CA464B
:100F9000D94640F2784B0020C2F2000B0BF8040057
:100FA000671C40F2EC20C2F2000059463A467646F1
:100FB000FFF7FCFB40F22C30C2F20000048040F24C
:100FC0002E300125C2F20000057040F27050C2F2CE
:100FD000000059463A46CB46D146C246FFF7E6FBEB
:100FE00040F2B050C2F20000048040F2B25040F231
:100FF0007437C2F20000B646C2F200070DF12E06A9
:1010000005700020A8F800000CE000BF3E2C09D8B5
:10101000601CAAF8000040F27840C2F2000000F81C
:10102000048000BFBEF800000130C0B2AEF800007E
:10103000002040F0020002287FF432AFBBF800002D
:10104000BEF80010A9F1010988427FF439AFEBE640
:1010500004F10A018AB29042FFF444AF079303F10E
:10106000080C52424FF0FF33BEF80050581C0544A4
:10107000EDB27D5D33445D70131801330346F3D147
:10108000BEF800201144C9B2AEF800109DF830102F
:10109000BDF83250012930D1079916F80C003144BF
:1010A000497A40EA0126A01D81B20998FFF708FE9F
:1010B000864227D19DF831109DF832009DF83320EB
:1010C0004B1E0F2B40EA02274DD8DFE813F010002B
:1010D0004F002000780065024C004C004C004C0092
:1010E0004C004C004C004C004C004C002B002004E9
:1010F00040F054823846002252E29DF83110A8B2E6
:1011000002224DE29DF83110A8B2012248E2079870
:10111000012840F0438203200A463946012301F0AA
:1011200071FA3FE240F29920C2F2000000780128F3
:1011300040F04C820691FFF715FE40F2703B00280C
:10114000C2F2000B40F04D82079806991C2840F02F
:1011500079829DF836000228C0F07982384607224D
:1011600000F0B6FF22E23846032219E2200440F0E4
:1011700015820691FFF7F6FD40F2703B0028C2F29F
:10118000000B40F02E8240F29820C2F2000000785E
:101190000699C00600F1738240F29920C2F2000065
:1011A0000078012840F06882FFF7D8FC002800F0A2
:1011B000658206993846002200F08AFF3AE223044D
:1011C00040F0EC8145F2AA51C8F201118DF8A0005F
:1011D0008DF8A40040F2992027913C21C2F2000032
:1011E000ADF8A210007840F29821C2F2000109780F
:1011F0008DF8A6000620CDF800800790032040F669
:10120000383B40F260188DF8A1208DF8A5208DF8AC
:10121000A71000260690C2F2000BC2F200080025BB
:1012200000204FF0000C002100224FF0010A0024A2
:101230000190CDF810B00596029500BF0AFA06F0AD
:1012400008EB040A9AF832309AF813E09AF816B0CC
:101250004FF0010A002B0AFA05F71CBF3A434CEA8B
:10126000000CBEF1000F18BF01430220BBF1000FBC
:1012700004F1340400FA05F018BF024302359C2C37
:1012800006F10106DAD1DDE90665DDF810B0CDF82A
:101290000C8000244FF002080BEB040393F823703A
:1012A0000AFA06F00AFA05FE93F824A093F825300E
:1012B000002F1CBF42EA0E024CEA000CBAF1000FEC
:1012C00018BF0143002B04F130044FF0010A08FA63
:1012D00005F018BF02430235902C06F10106DBD160
:1012E000079B01980C33029DDDF80C80059E079347
:1012F000069B002800F1010005F10C0508F19C088F
:1013000006F106060BF1900B03F1060306938ED04F
:101310004FEA1C208DF8A900080A8DF8AB00100ACE
:101320008DF8AD00100C8DF8AE00100E8DF8AF00EA
:1013300040F26010C2F20000DDF8008000F13206D9
:101340004FF0140A002527AF8DF8A8C08DF8AA1019
:101350008DF8AC204FF0000B07961BE000200AF13F
:1013600001011FFA8AF2B854020A0AF1020389B293
:101370007A54010C0AF103029BB20BF1010BF954F0
:10138000000E0AF1040A91B2BBF1030F06F1340614
:1013900078543ED030780028E0D056F82A0C5FFA16
:1013A0008BF1012908D089B9C117890041EA9071F0
:1013B00080000A2206E000BF40F2DB1180FB010141
:1013C00042F210720023FEF7F1FF09E046F2676176
:1013D000C6F2666150FB01F0411001EBD070C117FD
:1013E000D0F100424FF0FF3373EB01024FF00002E7
:1013F000B8BF0122002A08BF19464FF000426FF023
:10140000004308BF1046C21A71F10001A8BF184678
:10141000A5E70024E8B224A922AA20ABCDE9244400
:10142000CDE92244CDE9204404F0FAFD40F63831FC
:1014300005EBC500C2F2000101EB001090F823108B
:10144000AC461F941E941D94D1B1DDE924124FF0D7
:10145000FF36D1F1004376EB02034FF00003B8BF33
:101460000123002B08BF32464FF000436FF00046C7
:1014700008BF19468B1B72F10002A8BF31461D91AF
:1014800090F853101DADD1B1DDE922124FF0FF36B7
:10149000D1F1004376EB02034FF00003B8BF012304
:1014A000002B08BF32464FF000436FF0004608BFE4
:1014B00019468B1B72F10002A8BF31461E9190F8AD
:1014C0008300D0B1DDE920014FF0FF33D0F10042BD
:1014D00073EB01024FF00002B8BF0122002A08BFDF
:1014E00019464FF000426FF0004308BF1046C21A81
:1014F00071F10001A8BF18461F90002055F8201078
:101500000AF101021FFA8AF3F9540B0A0AF10207E1
:1015100092B227AEB3540A0C0AF10303BFB20130F2
:101520005446F25527AF090E0AF1040A9AB203286D
:10153000B954E3D1079EBCF1000F0CF1010506F18F
:101540009C063FF407AF08984221FFF7B9FB1FFA4A
:101550008AF2B854A4F14B02611D92B24FF6B073F7
:1015600040F2B84A40F2F475000A89B29A42C2F2D7
:10157000000AC2F20005785458D3A01D86B201F0CB
:1015800003FF044695F84100202837D001F0FCFE07
:10159000001B1328F6D949E020041AD0384604224B
:1015A00000F096FD40F2703BC2F2000B40F274373F
:1015B00040F2723E022000210DF12E06C2F2000719
:1015C000C2F2000E00297FF4CBAC32E53846062289
:1015D000E6E70691FFF7C6FB40F2703BC2F2000B54
:1015E00028B106993846092200F072FDDEE7042092
:1015F000069A3946012301F005F8D7E740F2BC44CA
:10160000C2F20004204627A93246FFF7CFF8284649
:101610002146324602F03EFF40B140F2BC4128462E
:10162000C2F200013246142302F0BAFE40F2703BCF
:10163000C2F2000B01F0A8FE40F26C51C2F20001B0
:101640000860B3E73846042200F042FDAEE700260A
:101650000DF12E0327A99A19D2688A510436182E43
:10166000F9D100F089FD044606993846224600F07B
:101670002FFD002C9AD1DDE70220B9E70699384604
:101680000A2200F025FD91E72DE9F04786B04FF0E2
:10169000000A43F63000CDF814A0CDE903AACDE945
:1016A00001AACDF800A0C4F20200016840F2004493
:1016B00041F0020101600068C4F2020400F002007F
:1016C0000090009801AD012720462946CDE9017719
:1016D00001F08AFD20460121002201F04FFE4FF06B
:1016E000040920462946CDF8049001F07DFD2046EE
:1016F0000421002201F042FE40F2740840F63C0052
:10170000C2F20008C2F20000C8E9000440F68400FA
:10171000C2F20000A8F8087088F86EA0A8F870A0BF
:10172000C8E91D0440F26014A8F87C90C2F20004DD
:101730004FF0000988F872A088F8E2A0A8F8E4A0A9
:1017400088F8E6A00025012766196755C6F818A095
:10175000C6E901AAC6E903AAC6F813A001F014FE5F
:1017600034359C2D07F10107F06186F832A0EBD1EA
:10177000B9F1000F09F1010904F19C04E2D0D8F895
:10178000000008F13C01322202F092F9D8F874000E
:1017900008F1B001322202F08BF9D8F80000D8F835
:1017A0007410C06B00230068026822F00802026017
:1017B000C86B00220068016821F00801016040F256
:1017C0009C20C2F20000002101704174012000F051
:1017D00019FF06B0BDE8F0872DE9F04F83B0FFF7A1
:1017E0000BFB01F0FFF840F22E35C2F2000528781D
:1017F000C0B340F2EC20C2F200000078A0F1610119
:10180000022902D3413801282CD840F2EC20C2F240
:1018100000000FF2FC31FEF727FF08B101240BE0B6
:1018200040F2EC20C2F200000FF2EC31FEF71CFF98
:101830000446002818BF0124FFF794FA00B18CB1C8
:101840000020287040F22C30C2F20000018840F2E3
:10185000EC20C2F200006A4603F0A0F910B168461D
:1018600002F03AFEFFF77EFA10B103B0BDE8F08F48
:1018700040F26010C2F2000000F1100700254FF0A6
:10188000010B40F254584FF000090DE00C208AF88B
:1018900016B0AAF8100000BFB9F1000F09F1010954
:1018A00007F19C0740F0A281FF2000213A4602E0A8
:1018B0000131032910D012F8343B0A2B05D80BFA5A
:1018C00003F616EA080F18BFC8B20A2BF0D80BFAB5
:1018D00003F313EA080FEBD040F27001C2F20001EB
:1018E0000978FF2818BF01469C2009FB00F034222C
:1018F00001FB020440F26010C2F2000000EB040A97
:101900009AF81200A0B19AF810000B2800D078B90C
:101910009AF8160060B9AAF81150AAF814508AF87B
:10192000325001F031FDCAF81C008AF810B000BF37
:101930009AF83000002800F0B5809AF810000A28C4
:1019400000F2B0800BFA00F010EA080F00F0AA8055
:101950006FF09B0009FB004044F6C5618010CCF29B
:10196000EC41484340F26011C2F200019C2209FBA5
:101970000211C0B2342210FB021686F8305096F8DD
:1019800031000528C0F08E8096F8310006F1200461
:10199000023881B22046FFF793F996F831102144BE
:1019A00011F8011C96F83120224412F8022C42EA68
:1019B0000121814240F07680307896F820108142F3
:1019C00040F07080307C023808286BD8DFE800F0E7
:1019D000056A1B6A056A346A480096F831000828CF
:1019E00060D196F8210010285CD196F822000328D7
:1019F00058D196F82300052854D196F824000028E1
:101A000050D1012013E096F8310008284AD196F809
:101A10002100102846D196F82200112842D196F8CC
:101A200023000C283ED196F82400D8BB022096F85B
:101A30002510814225D035E096F83100092831D1B2
:101A400096F8210003282DD196F82200042829D1E8
:101A500006F12300FFF790F9B06086F832B010E08D
:101A600096F8310009281DD196F82100032819D1D4
:101A700096F82200042815D106F12300FFF77CF91F
:101A8000F0609AF8100075740238C0B2082809D8BE
:101A900040F25511C140C90704D061A1085C8AF821
:101AA000100000BF9AF810000C2800F26D80DFE8EB
:101AB00000F02B490759078107390771072F3600B6
:101AC00001F062FCDAF81810401A1E28FFF4E4AEA8
:101AD0008AF830509AF811000130C1B20B298AF807
:101AE0001100BFF4D3AE9AF81000023808283FF670
:101AF000D3AEDFE800F006056F0573050905770032
:101B0000CAE68AF810B0C7E607208AF81000C3E6D4
:101B10009AF81200002818BF8AF810B0BCE68AF8BC
:101B20001250B9E68AF830509AF800105FFA89F03E
:101B300000F07CF801F028FCCAF8180008208AF8A8
:101B40001000A9E68AF830509AF800105FFA89F080
:101B500000F044FA01F018FCCAF8180002208AF8D4
:101B6000100099E68AF830509AF80010DAF804204C
:101B70005FFA89F000F06CF901F006FCCAF8180071
:101B800004208AF8100087E60C208AF810008AF8F2
:101B900016B081E68AF830509AF800105FFA89F0A2
:101BA00000F07EF801F0F0FBCAF818000A208AF86D
:101BB000100071E68AF830509AF800105FFA89F048
:101BC00000F048FA01F0E0FBCAF8180006208AF895
:101BD000100061E603208AF810005DE605208AF80F
:101BE000100059E609208AF8100055E640F270030B
:101BF000C2F200031878AB220130C1B25143490A46
:101C000001EB4101401A187003B0BDE8F08F00BF2E
:101C100053544F500000000073746F7000000000B8
:101C2000030305030003000300000000012888BF30
:101C30007047B0B540F27402C2F20002742310FB88
:101C4000032C0CF80A1F40F60331C0F20701CCF850
:101C5000011002218CF805104FF6FF714FF0000EB5
:101C60004AF201021CF80E3059406FF0070300BF22
:101C70000C4682EA5101E50708BF61080133F7D33A
:101C80000EF1010EBEF1060FECD10A0A8CF8061017
:101C900008218CF80720BDE8B040FEF7E7BF000040
:101CA000012888BF7047B0B540F27402C2F200024A
:101CB000742310FB032C0CF80A1F40F60331C0F20A
:101CC0001501CCF8011002218CF805104FF6FF71B8
:101CD0004FF0000E4AF201021CF80E3059406FF02E
:101CE000070300BF0C4682EA5101E50708BF6108FF
:101CF0000133F7D30EF1010EBEF1060FECD10A0A43
:101D00008CF8061008218CF80720BDE8B040FEF7DB
:101D1000ADBF000070B582B040F274060025C2F27B
:101D2000000600BF7159814204D07435742DF9D07A
:101D300002B070BD044601F01DFF00200190216833
:101D40000A6801924A680192019A01900A68019218
:101D50004A680192019A01900A6801924A680192C8
:101D6000019A01900A680192496832220191019911
:101D7000711981F86E00A1F870003C31204601F025
:101D800097FEE06B0068016821F00801016002B075
:101D900070BD000080B501F0F7FA40F26C51C2F25C
:101DA0000001086080BD0000F0B581B00446A9B113
:101DB00040F27400C2F200000D4600F13C016FF0E9
:101DC0001F0000BF51F83C2CA24214D09C3810F1E7
:101DD000BC0201F17401F5D001B0F0BD40F2740114
:101DE0000020C2F2000100BF0A58A24213D0743092
:101DF0007428F9D0F0E740F260130A78C2F20003C9
:101E00001E1A032016F8203C934208D0013806F130
:101E10003406F7D10FE0084400F13C010BE0102D2F
:101E200028BF102530462A460F46FEF7BFFC39462C
:101E30000120757430742046322201F039FEE06BC7
:101E40000068016821F00801016001B0F0BD0000E8
:101E500001284ED846F67F13CFF6677302EB030CCA
:101E60004DF2FF23CFF6CE639C4538BF7047B0B527
:101E700040F2740CC2F2000C742310FB03CC0CF87B
:101E80000A1F41F21011C0F20C01CCF8011040F20F
:101E90000241ACF80510110C130A8CF807308CF8CD
:101EA0000820120E8CF80A104FF6FF714FF0000E4A
:101EB0004AF201038CF809201CF80E2051406FF003
:101EC000070200BF0C4683EA5101E50708BF61081D
:101ED0000132F7D30EF1010EBEF10B0FECD10A0A5D
:101EE0008CF80B100D218CF80C20BDE8B040FEF7EB
:101EF000BDBE7047012888BF7047B0B540F274027C
:101F0000C2F20002742310FB032C0CF80A1F40F2EB
:101F10000631C0F203014FF0000E4FF6FF734AF294
:101F20000102CCF801108CF805E000BF1CF80E107F
:101F30004B406FF0070100BF1C4682EA5303E507E0
:101F400008BF63080131F7D30EF1010EBEF1060F91
:101F5000ECD11A0A8CF8063008218CF80720BDE86D
:101F6000B040FEF783BE0000012888BF7047B0B5BF
:101F700040F27402C2F20002742310FB032C0CF82E
:101F80000A1F40F20631C0F20301CCF80110012112
:101F90008CF805104FF6FF714FF0000E4AF2010267
:101FA0001CF80E3059406FF0070300BF0C4682EA60
:101FB0005101E50708BF61080133F7D30EF1010EA7
:101FC000BEF1060FECD10A0A8CF8061008218CF835
:101FD0000720BDE8B040FEF749BE0000012888BFD9
:101FE0007047B0B540F27402C2F20002742310FBD5
:101FF000032C0CF80A1F40F21031C0F20501CCF896
:10200000011040F20121CCF805104FF6FF714FF09E
:10201000000E4AF2010200BF1CF80E3059406FF06A
:10202000070300BF0C4682EA5101E50708BF6108BB
:102030000133F7D30EF1010EBEF1090FECD10A0AFC
:102040008CF809100B218CF80A20BDE8B040FEF78F
:102050000DBE0000012888BF7047B0B540F2740281
:10206000C2F20002742310FB032C0CF80A1F40F28A
:102070001031C0F20501CCF8011040F20121C0F28C
:102080000011CCF805104FF6FF714FF0000E4AF228
:10209000010200BF1CF80E3059406FF0070300BF6B
:1020A0000C4682EA5101E50708BF61080133F7D306
:1020B0000EF1010EBEF1090FECD10A0A8CF80910DD
:1020C0000B218CF80A20BDE8B040FEF7CFBD000020
:1020D000B0B584B045F2AA53C8F2010300936B4631
:1020E00002338DF80400050A04248DF808008DF8E9
:1020F0000A1018460A218DF80550ADF806408DF8F3
:1021000009508DF80B20FEF7DBFDADF80C0001F057
:102110003BF940F2F4750446C2F2000595F841001F
:10212000202806D001F030F9001B1328F6D904B09E
:10213000B0BDBDF80C0040F2BC41C2F20001888184
:102140009DE80D0081E80D0040F2F470C2F200003D
:102150000E2202F09FF90028E9D040F2F47040F21C
:10216000BC41C2F20000C2F200010E22142302F0B0
:1021700017F904B0B0BD00002DE9F04F9FB0012861
:1021800020D840F2601BC2F2000B9C2210FB02B26E
:10219000937DBBB902F14A034FF0FF32012A06D00A
:1021A00013F8347B0132002FF8D0022A0AD340F60C
:1021B000383300EBC002C2F2000303EB021292F8C4
:1021C000253023B10A2420461FB0BDE8F08F02F16C
:1021D00055034FF0FF3200BF012A06D013F8307BC1
:1021E0000132002FF8D0022AECD340F68022C2F24E
:1021F0000002582310FB032292F84B200A24002AE5
:10220000E1D149F2806542F600564FF0000C0DF125
:102210006009C0F29805C0F231164FF000088A46F6
:102220000B9000BF51F828105FFA88F2012A0BD0FA
:10223000C2B981FB04239A0F0023C1FB0423910838
:1022400041EA8372991010E042F2107081FB0001A4
:1022500040F2DB120023FEF7A9F802460B984FF07C
:10226000000C02E0052281FB0221531941F1000715
:10227000F31A7CEB070314D308F10108E9E8022103
:10228000B8F1030F5146CDD10EAA10AB12AE0CAF70
:10229000CDE90063029216AA14AB039702F060FE28
:1022A00008B105248FE70B989C2110FB01B134394C
:1022B0006FF00702012318AEB718BF6808328F63AA
:1022C00081F84630102A01F13401F5D10DF1480EA4
:1022D0000DF1540C9EE81240DDE91023DDE90E9764
:1022E000DDE90C659CE80015CDE9081404A9CDE9E9
:1022F0000097CDE9026581E80054CDF81C8002F01A
:10230000FBFD00245FE70000FEE700002DE9F0433D
:1023100081B040F260110020C2F20001002200BF33
:10232000002300BFCF1834339C2BB874388287F851
:10233000320087F83000F5D1002A02F1010201F1E4
:102340009C01EDD040F63830C2F2000040F6802902
:1023500040F65C1800F120040025C2F2000958275D
:10236000C2F20008002600BF06FB079006FB07F13B
:10237000A0F8485080F84B5080F854506FF02F0070
:1023800009F801502118303060280D63FAD106EBAE
:10239000C60008EB001080F88A50A0F88C50F0B20C
:1023A00002F096FE002E06F1010604F19004DBD047
:1023B00001B0BDE8F08300002DE9F04F81B040F698
:1023C000383040F29C2540F29823C2F20000C2F25D
:1023D0000005C2F200030127002610384FF0580A0A
:1023E00002244FF00408009029786889022940F0FF
:1023F000A5801978002800F0CF8041F00400187003
:1024000040F29920C2F2000003210170052040F241
:10241000601128700020C2F2000168802872688173
:102420002F7300BF002200BF8B1834329C2A9E7489
:102430001E8283F8326083F83060F5D1002800F105
:10244000010001F19C01EDD0DDF800B04FF0000972
:1024500040F68022C2F2000209FB0A2009FB0AF1C1
:10246000A0F8486080F84B60565480F85460032010
:10247000594600BF013841F8306FFBD140F65C117E
:1024800009EBC900C2F2000101EB001080F88A607C
:10249000A0F88C605FFA89F002F01AFEB9F1000F23
:1024A00009F101090BF1900BD2D00021002000BFEF
:1024B000002200BFC3B25B0053FA80F32B441A75AD
:1024C0000130022A02F101029C74D974F2D300296E
:1024D00001F10101ECD00021002200BFC3B25B007A
:1024E00053FA80F32B441A750130022A02F10102DB
:1024F00083F81280D974F1D3002901F10101EBD0E6
:10250000002100BF002200BFC3B25B0053FA80F37A
:102510002B441A750130022A02F101029F74D9740A
:10252000F2D3002901F10101ECD00106687065D1F8
:1025300040F298232E73C2F2000355E701390429B3
:1025400036D8DFE801F003350F17210018B11878ED
:1025500040F00800187040F299200024C2F20000F8
:1025600004703CE090B318780A2440F0080018701A
:1025700002202FE000284FF000002AD019780A240A
:1025800041F00801197025E000281EBF187840F0BE
:10259000080018700A2422E001F0F000C906187043
:1025A0000CD440F299210120C2F20001087003E02E
:1025B000187840F010001870002410E040F29921C3
:1025C0000320C2F2000108700A2408E0002402205F
:1025D00000E0002440F29921C2F200010870687CFA
:1025E00020B1E889297C2246FFF772FD1CB9687C7E
:1025F00008B1FFF7CFFB00202870687401B0BDE878
:10260000F08F00002DE9F04F85B0814600F0FD000D
:1026100040F29C240DF1080C0128C2F200048CE861
:102620000E0001906FD1207800F0FD0101290FD13B
:102630000498002800F0BC81607C002800F0C8816C
:10264000DDE90201092205B0BDE8F04FFFF740BD0A
:10265000002858D0607C20B1E089217C0A22FFF755
:1026600037FD40F260110020C2F20001002220700C
:10267000607400BF002300BFCF1834339C2BB874A4
:10268000388287F8320087F83000F5D1002A02F14D
:10269000010201F19C01EDD040F63830C2F2000099
:1026A00040F6802840F65C1AA0F110060025C2F220
:1026B00000085827C2F2000A4FF0000B0BFB0780FE
:1026C0000BFB07F1A0F8485080F84B5008F8015078
:1026D00080F8545003203146013841F8305FFBD177
:1026E0000BEBCB000AEB001080F88A50A0F88C505E
:1026F0005FFA8BF002F0ECFCBBF1000F0BF1010B69
:1027000006F19006DAD0B9F1010F18BFB9F1030F45
:1027100052D1019840F299210138B0FA80F0400975
:102720004000C2F20001087002990020E181039983
:1027300084F800902174049960816174A9F1010109
:1027400003292073C4F80200C4F80500607000F289
:102750003281DFE811F00400FF008E00BB00002191
:1027600001220020002300BFC7B27F0057FA80F784
:1027700027443B750130022B03F10103BA74F9744D
:10278000F2D3002901F10101ECD00021042200BFA5
:10279000002300BFC7B27F0057FA80F727443B757C
:1027A0000130022B03F10103BA74F974F2D300294A
:1027B00001F10101ECD0FAE0B9F1040FB4D140F21B
:1027C00060110020C2F20001002200BF002300BF00
:1027D000CF1834339C2BB874388287F8320087F8CE
:1027E0003000F5D1002A02F1010201F19C01EDD087
:1027F00040F63830C2F2000040F6802840F65C1AFD
:10280000A0F110060025C2F200084FF0580BC2F2EA
:10281000000A002707FB0B8007FB0BF1A0F84850CC
:1028200080F84B5008F8015080F85450032031468E
:10283000013841F8305FFBD107EBC7000AEB00100D
:1028400080F88A50A0F88C50F8B202F041FC002FBA
:1028500007F1010706F19006DCD0B9F1040F3FF64D
:1028600063AF012000FA09F010F01A0F7FF451AFA6
:102870005AE7002102220020002300BFC7B27F00D8
:1028800057FA80F727443B750130022B03F101030F
:10289000BA74F974F2D3002901F10101ECD00021DE
:1028A000042200BF002300BFC7B27F0057FA80F7A1
:1028B00027443B750130022B03F10103BA74F9740C
:1028C000F2D3002901F10101ECD070E000210222D5
:1028D000002000BF002300BFC7B27F0057FA80F777
:1028E00027443B750130022B03F10103BA74F974DC
:1028F000F2D3002901F10101ECD00021042200BF34
:10290000002300BFC7B27F0057FA80F727443B750A
:102910000130022B03F10103BA74F974F2D30029D8
:1029200001F10101ECD00021012200BF002300BF12
:10293000C7B27F0057FA80F727443B750130022B5E
:1029400003F10103BA74F974F2D3002901F1010112
:10295000ECD02CE000210022002000BF002300BFAB
:10296000C7B27F0057FA80F727443B750130022B2E
:1029700003F10103B974FA74F2D3002A02F10102DF
:10298000ECD00021032200BF002300BFC7B27F00AC
:1029900057FA80F727443B750130022B03F10103FE
:1029A000BA74F974F2D3002901F10101ECD060701E
:1029B00005B0BDE8F08F40F29821C2F200010A781C
:1029C0002070607442F01000087005B0BDE8F08F10
:1029D000012060740298E0810398207405B0BDE87E
:1029E000F08F00002DE9F04381B040F29C25C2F247
:1029F00000052878002800F0618195F8028005F133
:102A0000120700F0C1FC8146A878E97800EB40008D
:102A10003B5C002907EB000645D0D91E70780129E0
:102A200058D840F65C1200EBC001C2F2000202EB83
:102A3000011414F88A2F002A00F05981B27840F668
:102A40003836C2F2000602EB420206EB0111120117
:102A5000895C8022032B08BF882203F0A1FB0021A0
:102A60000028217000F04381A87800EB4001294440
:102A700011F8122F042A00F21781DFE812F0050086
:102A8000C6001501B600D5004B7840F260168F786D
:102A9000C2F200069C2413FB0463342617FB0633A2
:102AA0000127DF74D1E0042B00F29B80DFE803F004
:102AB000038B6B7A5A00707840F26012B178C2F2E0
:102AC00000029C2310FB032234235943515CFFF77F
:102AD0004BFA86E040F26012B178C2F200029C2309
:102AE00010FB0320342211FB020494F8300000286C
:102AF00000F0FD80002084F8300094F831000828B0
:102B000040F0F580207894F82010814240F0EF806A
:102B100004F120000621FEF7D3F8E18C814240F059
:102B2000E680307894F82110012800F2CA80062946
:102B300040F0DD8094F82210032940F0D88094F80A
:102B40002310032940F0D38094F82410002940F08A
:102B5000CE8094F82510002800F0C680002940F0AF
:102B6000C68081E77078B17840F6383300EBC00258
:102B7000C2F2000301EB410103EB02120901515CB7
:102B800003F086FB2DE0707840F26012B178C2F25B
:102B900000029C2310FB032234235943515CFFF7AE
:102BA0001DFA1EE07078B17840F6383300EBC002B1
:102BB000C2F2000301EB410103EB02120901515C77
:102BC00003F088FB0DE0707840F26012B178C2F239
:102BD00000029C2310FB032234235943515CFFF76E
:102BE00089F9C5F8049001208DE04B788F7840F684
:102BF000383603EBC303C2F2000606EB031307EB00
:102C0000470703EB071301271DE04B7840F26016DE
:102C10008F78C2F200069C2413FB0463342617FB52
:102C200006330027DF7410E04B788F7840F6383693
:102C300003EBC303C2F2000606EB031307EB4707DF
:102C400003EB0713002783F82470F2B1032A2BD17A
:102C50004A788B7840F6383702EBC201C2F200079F
:102C600007EB011103EB430701EB0717002187F87E
:102C700025103984C3B140F68023C2F200035827DF
:102C800012FB073282F84B100EE04A7840F26013D4
:102C90008978C2F200039C2712FB0732342311FB10
:102CA000032100228A750A8201306978A870C0B2B7
:102CB00088424FF00000E870287263D201B0BDE88E
:102CC000F083102913D194F8220003280FD194F82F
:102CD000230005280BD194F8240040B994F825006E
:102CE00001283FF4C1AE02E001293FF4BDAE68689F
:102CF000A9EB00001E28E1D3287A0130C1B20329D4
:102D0000287204D80020E87001B0BDE8F08308EB19
:102D100048003844027841788078D71E024601EB9B
:102D20004103022F38BF033202EB430301226E89B5
:102D300002FA03F33343012F6B810ED840F6383388
:102D400001EBC101C2F2000303EB011100EB4000F3
:102D500001EB001080F825200AE040F26013C2F277
:102D600000039C2711FB0731342310FB03108275ED
:102D7000A87869780130C2B2A8700020E8708A4251
:102D800028729BD301B0BDE8F043FFF715BB0000EC
:102D900040F21460C2F2000000F072B840F23470E9
:102DA000C2F2000000F06CB840F2D460C2F2000041
:102DB00000F066B840F29470C2F2000000F060B813
:102DC00040F27460C2F2000000F05AB87047000090
:102DD00072B600BFFEE7000070B5866D044600F0D5
:102DE000D3FA94F83510022925D105462068216CC4
:102DF000026822F016020260426922F080024261FB
:102E000009B9A16C19B1016821F0080101600168DC
:102E100021F00101016000BF20680068C0070ED0EA
:102E200000F0B2FA401B0628F6D32020606503208C
:102E300084F835000CE080206065012008E0E06D3A
:102E40003F2101FA00F0B060012084F83500002035
:102E5000002184F8341070BD90F83510022909D192
:102E6000052180F835100068016821F0010101603A
:102E7000002070478021416501207047406D7047F8
:102E8000F0B581B00021009140F20001C2F20001D2
:102E90000B68D0E9166148F2B51537680822C1F60B
:102EA0004E358A403A42A3FB05350CD003681C68B6
:102EB000640708D51C6824F004041C60B260426DED
:102EC00042F00102426501228A403A4208D003687A
:102ED0005B691B0604D5B260426D42F00202426596
:102EE00004228A403A4208D003681B689B0704D535
:102EF000B260426D42F00402426510228A403A42BA
:102F000016D001680B681B0712D5B2600B680A68FF
:102F10005B0306D4D20506D40A6822F008020A60D0
:102F200001E011033FD4016C11B1044688472046EB
:102F3000C26D202101FA02F33B4241D001680F68C3
:102F4000FF063DD5B36090F835700B68052F1AD198
:102F500023F016030B604B6923F080034B61036C75
:102F60000BB9836C1BB10B6823F008030B603F2186
:102F70009140B160012180F83510016D002280F888
:102F80003420D9BB3EE00A685B0310D4D20512D4CA
:102F90000A6822F010020A60012180F83510002131
:102FA00080F8341007E0816C0029BED1C0E711031E
:102FB00001D4416C00E0C16B11B104468847204642
:102FC000416DF9B1416DC90716D0052180F8351062
:102FD0000168AA0A0B6823F001030B60009B013310
:102FE0009342009302D80B68DB07F7D1012180F8E8
:102FF0003510002180F83410C16C19B101B0BDE862
:10300000F040084701B0F0BD2DE9F041044600F062
:10301000BBF9C4B10546022084F8350000202168C0
:1030200084F83400086820F0010008602068016816
:10303000C9070BD000F0A8F9401B0528F6D90321D9
:10304000202203207AE00120BDE8F081016848F2E7
:103050003F02CFF21002D4E9013501EA020ED4E9B1
:10306000032143EA0E032B43D4E9056C1A43D4E948
:1030700007781143314341EA0702616A42EA0802D4
:10308000042942EA0C0303D1D4E90B273A43134342
:1030900003604269042922F0070241EA02012DD1AE
:1030A000D4E90A5341EA050143B3BCF5005F08D0F7
:1030B000BCF1000F12D1022D16D0012D07D09DB109
:1030C00019E0032D17D8DFE805F00B0F0B02A3F171
:1030D000C072B2FA82F252094AB90FE0032D02D24D
:1030E000012222B90AE006D1C3F3006232B1012104
:1030F0004022012022E00022002AF8D100F0F8024C
:103100004AF6AB23103ACAF6AA23A2FB033747F2CA
:10311000226341613909C0F60003595C40F2FF3374
:1031200098435F2A4FF03F0288BF0430C4E916017C
:1031300002FA01F18160002201210020626584F819
:103140003510BDE8F081000090F834C0BCF1010FEB
:1031500004BF0220704770B54FF0010C80F834C0F6
:10316000D0F858E090F835C0BCF1010F37D14FF0DE
:10317000020C80F835C04FF0000CC0F854C0D0F8F5
:1031800000C08468056CC06DDCF80060402C26F43B
:103190008026CCF80060CCF804300B4604BF134600
:1031A0000A463F2101FA00F0CCF80830CCF80C2098
:1031B000CEF80800DCF8000040F01600CCF8000063
:1031C0002DB1DCF8000040F00800CCF80000DCF87D
:1031D000000040F00100CCF80000002070BD00218C
:1031E00080F83410022070BD2DE9F04F83B000F15B
:1031F000200200F13E4741F60045009207F1FF77BB
:10320000C4F2020508224FEAB726A84208BF0722E7
:10321000072E38BF4FEAB72200274FF0000A4FF0C1
:10322000000801920AE000BF08F101080AF1020A51
:10323000B8F1100F07F1040700F09D800D6801221E
:1032400002FA08FC15EA0C09EED04D68032205F0DD
:10325000030BABF10106012E02FA0AFE10D88668B4
:10326000CC6826EA0E0604FA0AF434438460446803
:10327000C5F3001524EA0C0605FA08F52E4346604E
:10328000BBF1030F1BD0C6688D6826EA0E0605FA4F
:103290000AF52E43BBF1020FC66010D16FF0030296
:1032A000009D02EA580655F806C007F01C040F22DC
:1032B0000B69A2402CEA0202A3401A43AA510268F9
:1032C0004B6822EA0E0203F0030606FA0AF63243BE
:1032D00013F4403F0260A7D0002243F64403029259
:1032E000C4F202031A6843F6004442F480421A60B2
:1032F0001A68C4F2010402F480420292029A28F091
:1033000003024FF6084C2244CFF6FF7C52F80C30F3
:1033100007F00C060F25B540AB43019D05FA06F6F4
:10332000334342F80C30A2684B6842EA090643F680
:103330000C4CDD0258BF22EA0906A660C4F2010C5B
:10334000DCF800209D0242EA090658BF22EA09067D
:10335000CCF8006062689D0342EA090658BF22EA81
:10336000090666602268DB0342EA090658BF22EAC2
:103370000906266058E703B0BDE8F08F002A08BFB1
:10338000090481617047000040F65C40C2F2000011
:103390000068704740F2040040F65C41C2F2000051
:1033A000C2F2000100780A6810440860704700000B
:1033B00080B543F60040C4F20200016841F4007198
:1033C0000160016841F480610160016841F480712D
:1033D0000160032000F08AF80F2000F005F800F0EB
:1033E0002BF8002080BD0000B0B540F20402C2F20C
:1033F000000240F200011278C2F200014FF47A7329
:103400000968B3FBF2F20446B1FBF2F1084600F0A2
:1034100039FB0F2C4FF001050CD858B94FF0FF3095
:1034200021460022002500F035F840F20800C2F2E3
:10343000000004602846B0BD82B0002043F6400181
:103440000190C4F202014A6842F480424A604A682C
:1034500002F480420192019A0090086840F0805086
:103460000860086800F080500090009802B0704733
:10347000002848BF704700F01F01012202FA01F145
:103480001C2202EAD0004EF20012CEF2000281505D
:103490007047000010B54EF60C5CCEF2000CDCF864
:1034A0000030C3F3022E8EF00704042C28BF04243E
:1034B000BEF103034FF0FF3E0EFA04F438BF0023C1
:1034C000A14399400EFA03F39A43114300F160427D
:1034D00000F00F03090102F56442043B6344002835
:1034E00048BF03F10C02117010BD00004EF60C51E4
:1034F000CEF200010A684FF6FF031A4060F30A2279
:1035000042F0806040F0FD7008607047002804BF02
:10351000012070472DE9F04143F60808C4F2020883
:103520000446D8F8F8030D4600F00700814207D999
:1035300088F8F853D8F8F80300F00700A84276D1CD
:103540002068810717D5410705D5D8F8001041F448
:10355000E051C8F80010010705D5D8F8001041F473
:103560006041C8F80010D8F80010A26821F0F001FE
:103570001143C8F80010C0073FD1D8F8F80300F095
:103580000700854207D288F8F853D8F8F80300F00E
:103590000700A8424BD12068410707D5D8F8001092
:1035A000E26821F4E0511143C8F80010000708D583
:1035B000D8F80000216920F4604040EAC100C8F852
:1035C000000000F07BF8D8F8001047F20A62C1F35F
:1035D0000311C0F60002515C40F2000220FA01F132
:1035E00040F20800C2F200000068C2F2000211605E
:1035F000FFF7FAFE0020BDE8F0816068811E022915
:1036000007D258F8081C89015CBF0120BDE8F08191
:1036100010E0012807D158F8081C89035CBF01207D
:10362000BDE8F08106E058F8081C890702D40120A3
:10363000BDE8F081D8F8001021F003010843C8F874
:103640000000FFF7A1FE064641F28837D8F80000D7
:10365000616800F00C00B0EB810F8ED0FFF794FE94
:10366000801BB842F2D90320BDE8F08140F200008F
:1036700043F60801C2F20000C4F2020100680968C2
:1036800047F21A62C1F38221C0F60002515CC840C1
:103690007047000040F2000043F60801C2F200004B
:1036A000C4F202010068096847F21A62C1F34231AC
:1036B000C0F60002515CC8407047000010B543F6E8
:1036C0000404C4F202046168C1F3810142F20040C3
:1036D000C0F2F400DFE801F00203080210BD41F27D
:1036E0000020C0F27A0010BD216801F03F0221687D
:1036F00023684902C3F3881105D4A1FB000100230C
:10370000FCF7DCFD06E041F20020C0F27A004843FD
:10371000B0FBF2F021680222C1F3014102EB41014A
:10372000B0FBF1F010BD0000002804BF012070477D
:103730002DE9F04182B00446007843F60006C00748
:10374000C4F2020649D0B06800F00C00042809D188
:103750003068800341D5606800283ED1012002B066
:10376000BDE8F081B06800F00C00082802D1706854
:103770004002EDD465683068B5F5A02F05D0B5F5E9
:10378000803F09D140F480300CE040F4802030606C
:10379000306840F4803005E020F4803030603068DC
:1037A00020F480203060FFF7EFFD002D054611D09A
:1037B0003068800311D4FFF7E7FD401B6428F7D978
:1037C00028E100BFFFF7E0FD401B64284FF0030035
:1037D00000F2E08030688003F4D4207880071BD5A5
:1037E000B06810F00C0F09D0B06800F00C00082889
:1037F00040F085807068400200F181803068800769
:1038000003D5E068012840F09A803068216920F0F3
:10381000F80040EAC10030602078000734D42078F6
:10382000400746D4A5695DB3B06800F00C000828D5
:1038300040F09C80012D00F082807068E16900F406
:1038400080028A427BD1216A00F03F028A4276D10F
:1038500047F6C071626A0140B1EB821F6FD1A16A65
:103860004FF6FF73C903994300F44032A1F580314C
:103870008A4264D1E16A00F07060B0EB016F5ED102
:10388000002002B0BDE8F081606900285BD0002014
:10389000C4F247200121C0F8801EFFF775FD0546E0
:1038A000706F8007BBD4FFF76FFD401B0228F7D96C
:1038B000B0E0306C5FEAC0080AD400200190306CA0
:1038C00040F080503064306C00F0805001900198DE
:1038D00047F20007C4F200073868C00526D43868EC
:1038E00040F480703860FFF74FFD05463868C0052A
:1038F0001CD4FFF749FD401B0228F7D98AE0E06895
:10390000002840F20000C4F2472053D0012101609A
:10391000FFF73AFD054600BF306880073FF575AFF9
:10392000FFF732FD401B0228F6D973E0A568306F1F
:10393000052D51D0012D56D140F0010059E0012054
:1039400002B0BDE8F0810020C4F247200021C0F899
:10395000801EFFF719FD0546706F80077FF55FAF8A
:10396000FFF712FD401B0228F6D953E00027C4F2EE
:10397000472700203866FFF707FD022D05460DD1C9
:10398000306880015DD5FFF7FFFC401B02284FF037
:103990000300F5D902B0BDE8F08100BF30688001B6
:1039A0007FF56EAFFFF7F0FC401B02284FF00300DD
:1039B000F4D9EFE700210160FFF7E6FC054600BF00
:1039C000306880077FF528AFFFF7DEFC401B022838
:1039D0004FF00300F4D9DDE740F004003067306FAA
:1039E00040F0010005E020F001003067306F20F06A
:1039F00004003067FFF7C8FC002D054641F2883708
:103A000013D000BF306F800712D4FFF7BDFC401BFE
:103A1000B842F7D9032002B0BDE8F081FFF7B4FC4B
:103A2000401BB8424FF00300B4D8306F8007F5D484
:103A3000B8F1000F3FF5F6AE306C20F080503064E6
:103A4000F0E604F11C052FCD084340EA8210D903AB
:103A50004FF6FF729143A1F5803140EA05600843BB
:103A6000706001203866FFF78FFC044630688001E3
:103A70003FF506AFFFF788FC001B02284FF003005C
:103A8000F4D987E7411E0020B0EB116F1CBF012065
:103A900070474EF21002CEF2000251604EF62351F2
:103AA000CEF20001F0230B70072190601160704787
:103AB00090F84230202B07D100294FF0010318BFA6
:103AC000002A04D118467047022318467047B0B543
:103AD00082B00123002503634563044602F0CEFF54
:103AE000216B0123012912D1019521680A680192F5
:103AF00049680191019900BF216851E8031F2268BC
:103B000041F0100142E80313002BF5D1034602B047
:103B1000BDE8B04018467047B0B50446006841F2B1
:103B20000002C4F20102904209D020460D46FEF781
:103B30003BF920462946BDE8B04002F083BB40F285
:103B40002F354020C2F20005402928BF01462846F3
:103B5000FDF71CF940F2F470C2F200002946402241
:103B6000FFF7A6FFE06B0068016821F00801016023
:103B7000B0BD000010B50446206850E8030F21686E
:103B800020F4907041E80302002AF5D1206850E843
:103B9000050F216820F0010041E80502002AF5D157
:103BA000206B01280AD100BF206850E8030F21686C
:103BB00020F0100041E80302002AF5D12068406996
:103BC000400619D5206850E8050F216820F0400014
:103BD00041E80502002AF5D1E06B68B100210165DA
:103BE000FFF7FAF840B1E06BFFF748F9202803D15E
:103BF00010206064032010BD00202021E08584F89F
:103C00004210206310BD000010B582B0016841F27F
:103C10000002C4F201020446914207D0FEF77AF88E
:103C2000204602B0BDE8104002F07ABAFFF7A2FFCA
:103C30000020019021680A6801924A680192019A65
:103C400001900A6801924A680192019A01900A68FB
:103C500001924A680192019A0190086840220190FD
:103C6000486840F22F310190019840F2F470C2F29E
:103C70000000C2F20001FFF71BFFE06B0068016863
:103C800021F00801016002B010BD0000B0B582B0A3
:103C900001680A68CC684B6902F02F05202D04F0FA
:103CA000200505D125B102B0BDE8B04002F016BE36
:103CB0005FEA027C1EBF03F0010E04F4907313EB65
:103CC0000E0340D1036BD50618D5012B16D114F085
:103CD000100313D0002201920A6801924A680192EF
:103CE000019A4969490647D4818DC28DC38D002B45
:103CF00018BF914240F01A8102B0B0BD13062AD518
:103D000014F0800327D090F84120212AF4D1826852
:103D1000B2F5805F03D10269002A00F03A81026A9D
:103D2000531C036212784A60C28C013A1304C284A5
:103D3000E2D1C86820F08000C860C86840F0400048
:103D4000C86002B0B0BDD10718BF14F4807167D14C
:103D500051076BD471E05206CED514F04002CBD09F
:103D6000CA6822F04002CA60202180F8411002B0E7
:103D7000BDE8B04000F0ACBBC26B116849688BB2C3
:103D8000002B42D0858DAB423FD2C185D169B1F5C0
:103D9000807F33D0016851E8031F026821F48071ED
:103DA00042E80313002BF5D1016851E8051F0268B2
:103DB00021F0010142E80513002BF5D1016851E81B
:103DC000051F026821F0400142E80513002BF5D1E0
:103DD000202180F842100021016300BF016851E8F2
:103DE000031F026821F0100142E80313002BF5D1F4
:103DF000C16B04460846FEF7EFFF204602214163EF
:103E0000818DC28D891A89B2B9E0818D99427FF482
:103E100073AFD269B2F5807F7FF46EAF0222ADE05E
:103E2000416C41F001014164510706D5BEF1000F1C
:103E300003D0416C41F002014164910706D5BEF107
:103E4000000F03D0416C41F004014164BCF1000F4C
:103E500006D55EEA050103D0416C41F008014164DA
:103E6000416C00293FF448AF910604D51DB10446CA
:103E700002F034FD204601684969426C01F04001BE
:103E800002F0080289184AD0016851E8031F02684D
:103E900021F4907142E80313002BF5D1016851E839
:103EA000051F026821F0010142E80513002BF5D13E
:103EB000016B01290AD100BF016851E8031F0268A4
:103EC00021F0100142E80313002BF5D1202180F8E6
:103ED00042100021016301684969490654D500BFB9
:103EE000016851E8051F026821F0400142E805130E
:103EF000002BF5D1C16B002946D046F29572C0F671
:103F00000002044608460A65FEF7A6FF00283FF4B3
:103F1000F3AEE06B016D02B0BDE8B0400847044667
:103F2000FFF772FE0020606402B0B0BD891A00BFC6
:103F3000026852E8032F036822F4907243E80325D5
:103F4000002DF5D1026852E8052F036822F0010226
:103F500043E80525002DF5D1202280F842200022DB
:103F6000026300BF026852E8032F036822F01002C8
:103F700043E80325002DF5D1022289B2426302B045
:103F8000BDE8B040FFF7C8BD02B0BDE8B040FFF7E4
:103F90003BBE026A32F8023B6FF35F234B60026262
:103FA000C2E60000002804BF0120704710B5044697
:103FB00090F8410028B9002084F84000204600F025
:103FC00021F8242084F841002068C16821F40051C0
:103FD000C160204602F0E2FC2068016921F49041B2
:103FE0000161416921F02A014161C16841F4005138
:103FF000C16000202021606484F8411084F84210E0
:10400000606310BD2DE9F04786B00446006844F6B1
:10401000FF71C4F2000188424FF000010591CDE923
:104020000311CDE9011178DD41F20041C4F2010133
:10403000884200F0CA8041F20001C4F201018842C6
:1040400000F00C8145F20001C4F20001884240F00A
:10405000A081002643F630000096C4F202000169F8
:10406000002741F4801101610169C4F2020701F4E3
:104070008011009100990096016801AD41F00401A2
:10408000016001684FF0020801F0040100910099FD
:10409000009601684FF0030941F0080101600068D3
:1040A0004FF0080A00F00800009000984FF480508C
:1040B000019007F500602946CDE90286CDF8109001
:1040C000CDF814A0FFF790F80420CDE9010803A86B
:1040D00080E8400607F540602946FFF785F840F282
:1040E000146546F21000C2F20005C4F202004FF05F
:1040F00000614FF4806285E843002846C5E9036209
:10410000C5E90566C5E907666E62FEF77DFF002812
:104110004FF0350640F0E98031E144F20041C4F24D
:104120000001884200F0E48044F60001C4F200017E
:10413000884240F02E81002643F630000096C4F2FB
:104140000200016941F480210161016901F48021CB
:10415000009100990096016841F002010160006839
:1041600001A900F00200009000984FF44060019017
:104170000220CDE9020603200490072005900020CC
:10418000C4F2020000F58060FFF72EF846F210003E
:10419000C4F2020040F234751830C2F200054FF04C
:1041A00000614FF4806285E843002846C5E9036258
:1041B000C5E90566C5E907666E62FEF725FF0028BA
:1041C0004FF0270640F09180D9E0002643F63000FA
:1041D0000096C4F20200416941F020014161416949
:1041E00001F02001009100990096016841F004015E
:1041F0000160006801A900F0040000900098C02050
:1042000001900220CDE902060320049008200590C9
:104210000020C4F2020000F50060FEF7E5FF46F260
:104220001000C4F2020040F2947500F58360C2F2FF
:1042300000054FF020614FF4806285E84300284676
:10424000C5E90362C5E90566C5E907666E62FEF762
:10425000DBFE00284FF0470647D190E0002643F6EA
:1042600030000096C4F20200416941F01001416142
:10427000416901F01001009100990096016841F038
:1042800001010160006801A900F0010000900098A0
:104290004FF4C06001900220CDE902060320049093
:1042A000072005900020C4F20200FEF79DFF46F2B1
:1042B0001000C4F2020040F2746500F58660C2F29C
:1042C00000054FF000614FF4806285E84300284606
:1042D000C5E90362C5E90566C5E907666E62FEF7D2
:1042E00093FE00284FF0250649D0FEF771FD46E009
:1042F000002643F630000096C4F20200016941F442
:1043000000310161016901F40031009100990096CA
:10431000016841F001010160006801A900F001009D
:10432000009000980C2001900220CDE902060320A5
:104330000490072005900020C4F20200FEF754FF0D
:1043400046F21000C4F2020040F2D4657830C2F2A6
:1043500000054FF000614FF4806285E84300284675
:10436000C5E90362C5E90566C5E907666E62FEF741
:104370004BFE00284FF0260618BFFEF729FD3046F9
:1043800000210022E563AC63FFF784F83046FFF7B5
:104390006FF806B0BDE8F087704700007047000076
:1043A0002DE9F04381B0044690F84100202809D15E
:1043B000884600294FF0010018BF002A06D101B03D
:1043C000BDE8F083022001B0BDE8F0830020606406
:1043D00021201D4684F841001646FEF7D5FFA6842D
:1043E000E684A1680646B1F5805F02D12069002805
:1043F0004DD0C1464FF00008E08C40B36F1C0BE07D
:10440000B9F1000F1AD019F8010B21684860E08C4F
:104410000138E084E08CD0B1206800680006EFD459
:10442000002FF9D0FEF7B0FF01464FF0030045B36F
:10443000891BA94225D82068C068EDE738F8020B2F
:1044400021686FF35F2048604FF00009DFE72068C4
:104450000068400614D46F1C04E000BF20680068A8
:1044600040060DD4002FF9D0FEF78EFF01464FF025
:10447000030035B1891BA94203D82068C068EDE765
:104480000020202184F8411001B0BDE8F0834FF0F6
:104490000009B1E790F84130202B07D100294FF0F7
:1044A000010318BF002A04D118467047022318469A
:1044B00070470162002321218284C284436480F812
:1044C00041100068C16841F08001C1601846704722
:1044D00070470000FEE700002DE9F04782B0002899
:1044E00000F0BD82017A002900F0B982017801391B
:1044F000092900F2B482DFE811F0F7003F017600ED
:10450000D1000A000A007401AC00A9014F00032089
:10451000002100220023FEF775F847F25060C0F634
:10452000000090E84E00006940F20C55C2F2000510
:1045300085E84E002861FEF727FF40F2F476044636
:10454000C2F2000696F84100202805D0FEF71CFFB5
:10455000001B1328F6D982E295E84D0040F2BC41D9
:10456000C2F2000181E84D00288AAA7C088240F24C
:10457000F4708A74C2F200001322FFF78BFF002848
:1045800000F06D8240F2F47040F2BC41C2F20000D3
:10459000C2F2000113225CE2FCF7E4FB002800F009
:1045A000F58147F2FC60C0F6000090E88E0040F212
:1045B0000C55C2F2000585E88E00018A807C2982B4
:1045C000A874FEF7E1FE40F2F4760446C2F200065B
:1045D00096F84100202800F05F81FEF7D5FE001B11
:1045E0001328F5D93BE247F27C60C0F6000000F1E9
:1045F000200300F1140E40F20C550ECB9EE8105033
:10460000C2F20005296205F1140190E80007D0E923
:10461000037681E8105090F82E10808D6A62AB62AC
:1046200085E80007C5E9037685F82E10A885FEF712
:10463000ABFE40F2F4760446C2F2000696F8410062
:10464000202800F04881FEF79FFE001B1328F5D9B3
:1046500005E247F23460C0F6000090E88E0040F2B8
:104660000C55C2F20005D0E9046485E88E00018B88
:10467000807EC5E904642983A876FEF785FE40F2B2
:10468000F4760446C2F2000696F84100202851D084
:10469000FEF77AFE001B1328F6D9E0E147F23460FA
:1046A000C0F6000090E88E0040F20C55C2F2000502
:1046B000D0E9046485E88E00018B807EC5E904643E
:1046C0002983A876FEF760FE40F2F4760446C2F233
:1046D000000600BF96F8410020282BD0FEF754FEBC
:1046E000001B1328F6D9BAE147F23460C0F6000087
:1046F00090E88E0040F20C55C2F20005D0E9046447
:1047000085E88E00018B807EC5E904642983A87644
:10471000FEF73AFE40F2F4760446C2F2000600BF0D
:1047200096F84100202805D0FEF72EFE001B132826
:10473000F6D994E195E88D0040F2BC41C2F2000147
:1047400081E88D00288BD5E90464088340F2F47079
:10475000C2F200001A220E614C61FFF79BFE002896
:1047600000F07D8140F2F47040F2BC41C2F20000E2
:10477000C2F200011A226CE1417840F260128078A6
:10478000C2F200029C274B1C11FB0721342210FBB4
:1047900002118F68461C40F20C50C2F200000FF26A
:1047A000E8326021CDE90067FBF73AFEA0F1510144
:1047B00089B24FF6B0729142C0F0518184B2FEF7D7
:1047C000E3FD40F2F4760546C2F2000696F8410099
:1047D000202800F02081FEF7D7FD401B1328F5D9D3
:1047E0003DE147F2D060C0F6000000F1100ED0E9C4
:1047F000081740F20C55D0E90092D0E902369EE845
:104800001050D0F81C80C2F2000590F82800C5E9CD
:10481000081705F11001C5E90092C5E9023681E8E3
:104820001050C5F81C8085F82800FEF7ADFD40F259
:10483000F4760446C2F2000696F8410020287AD0A9
:10484000FEF7A2FD001B1328F6D908E1FCF78AFA4F
:10485000002800F0B78047F2FC60C0F6000090E846
:104860008E0040F20C55C2F2000585E88E00018AE8
:10487000807C2982A874FEF787FD40F2F476044616
:10488000C2F2000696F84100202805D0FEF77CFD14
:10489000001B1328F6D9E2E095E88D0040F2BC41F8
:1048A000C2F2000181E80D00288A1222088240F23B
:1048B000F470C2F20000CF60FFF7ECFD002800F0BA
:1048C000CE8040F2F47040F2BC41C2F20000C2F26D
:1048D00000011222BDE005F1200340F2BC410DCBE6
:1048E000C2F200010862A88D05F1140E95E80007D8
:1048F000D5E903769EE81050888540F2F4704A624C
:10490000C2F200002E228B6281E80007C1E9037623
:10491000C1E9054CC1F81CE0FFF7BCFD002800F020
:104920009E8040F2F47040F2BC41C2F20000C2F23C
:1049300000012E228DE0D5E90082D5E90237D5E9C4
:104940000464D5E906CED5E9080540F2BC41C2F2BF
:104950000001C1E9080540F2F470C1E90082C2F229
:1049600000002822C1E90237C1E90464C1E906CE8A
:10497000FFF790FD002872D040F2F47040F2BC4185
:10498000C2F20000C2F20001282262E004200021ED
:1049900000220023FDF736FE40F20C505E49C2F2C1
:1049A00000005DA2D2E90137D2E90365546980E8CD
:1049B0008A00118B927EC0E90365018382761A21F9
:1049C0004461A3E040F29920C2F20000007801287F
:1049D00048D1FCF7C3F8002875D062A240F20C5011
:1049E000D2E90541C2F20000816192F82010DFF89F
:1049F00074C1D2E90137D2E90365D2F81CE080F82E
:104A000020102021C0E900C3C0E90276C0E90454A7
:104A1000C0F81CE076E040F2BC45C2F2000540F26E
:104A20000C51C2F2000128462246FBF7BFFE40F2BD
:104A3000F470C2F2000029462246FFF72BFD70B148
:104A400040F2F47040F2BC41C2F20000C2F2000138
:104A50002246142302B0BDE8F047FFF7A1BC02B024
:104A6000BDE8F08740F29820C2F200000078C0064E
:104A700019D40220002100220023FDF7C3FD40F2DB
:104A80000C503149C2F200002FA2D2E90137D2E91D
:104A90000365546980E88A00118BC6600561018353
:104AA0001921446132E023A240F20C502149D2E99D
:104AB0000137D2E90362C2F2000080E88A00C660D2
:104AC0001321026122E047F2AC60C0F60000D0E999
:104AD00000E240F20C51C2F20001D0E90237D0E905
:104AE0000465D0E9064CC1E900E290F82220008C70
:104AF000C1E90237C1E90465C1E9064C81F8222009
:104B00000884222140F20C50C2F2000002B0BDE83D
:104B1000F04700F0AFB900BF4F4B20414C4C204450
:104B2000495341424C453A20414343455054454442
:104B30000D0A000045525220434F4E54524F4C2014
:104B40004641554C540D0A004F4B20414C4C2045DA
:104B50004E41424C453A2041434345505445440D53
:104B60000A0000004F4B20414C4C20454E41424C26
:104B7000453A20414C524541445920454E41424C12
:104B800045440D0A00000000504F53204225642088
:104B90004D256420256C640D0A00000070B582B0BC
:104BA000054604294FF000002DD365B3144652B3D7
:104BB000C4E90000A0607AA128460822FBF766FD40
:104BC000C8B17AA128460A22FBF760FD80B17AA11C
:104BD00028460B22FBF75AFD80B1287840F02000D0
:104BE000622805D168783138C1B2012960700CD9CA
:104BF000002002B070BD4FF6067001E04FF60A705B
:104C000020800120207202B070BD6EA12846FBF703
:104C10002BFD20B96DA12846FBF726FD10B105201C
:104C20002070EEE76BA12846FBF71EFD20B96BA1B3
:104C30002846FBF719FD08B10720F1E728464D216A
:104C4000FBF708FD18B928466D21FBF703FD002886
:104C500077D041783139CAB2032AA1700FD340F21C
:104C60000C50754974A2C2F20000D2E90136D2E9B3
:104C7000035280E84A001321C0E9035274E006465B
:104C800058A12846FBF7F0FC20B957A12846FBF7AE
:104C9000EBFC08B10320C3E728465121FBF7DAFCFF
:104CA00020B928467121FBF7D5FC08B10220B7E7EF
:104CB0004EA12846FBF7D8FC20B94DA12846FBF7AA
:104CC000D3FC08B10820ABE74AA12846FBF7CCFC8F
:104CD00020B94AA12846FBF7C7FC08B104209FE78A
:104CE00030465021FBF7B6FC18B930467021FBF76F
:104CF000B1FC30B3013001A901F096FCB8B30199C1
:104D000046F67F10CFF667704DF2FE220844CFF6CC
:104D1000CE6290423FD83BA240F20C50DFF8E4C094
:104D2000D2E90136D2E90354D2E90512C2F20000F9
:104D3000C0E900C3C0E90265C0E9044182611B21EA
:104D400012E047F26461C0F6000191E84C00D1E93D
:104D5000035440F20C50898AC2F2000080E84C00F3
:104D6000C56004618182152100F084F840E740F2BB
:104D70000C502B49C2F2000029A2D2E90136D2E937
:104D8000035480E84A00918A927DC0E903548182ED
:104D900082751621E8E701202070616032E700BFCC
:104DA000414C4C2053544F5000000000414C4C20CB
:104DB000454E41424C450000414C4C204449534132
:104DC000424C450053544F500000000073746F7004
:104DD00000000000544553540000000074657374D3
:104DE00000000000454E0000656E0000474F0000C7
:104DF000676F0000484F4D4500000000686F6D650B
:104E00000000000045525220504F534954494F4E24
:104E1000204F5554204F462052414E47450D0A0021
:104E200045525220494E56414C494420504F534917
:104E300054494F4E0D0A000045525220494E5641EA
:104E40004C4944204D4F544F520D0A0010B540F2CA
:104E5000F474C2F2000440F22F31C2F20001204685
:104E60004022FEF725FEE06B0068016821F0080192
:104E7000016010BDF0B581B0D8B30546A1F1510075
:104E80000C4680B24FF6B071884232D3FEF77CFAFE
:104E900040F2F4770646C2F2000700BF97F84100DF
:104EA000202805D0FEF770FA801B1328F6D920E0E1
:104EB00040F2BC46C2F20006304629462246FBF7C5
:104EC00030FC40F2F470C2F2000031462246FFF797
:104ED000E1FA70B140F2F47040F2BC41C2F200005D
:104EE000C2F200012246142301B0BDE8F040FFF7F2
:104EF00057BA01B0F0BD0000012888BF70472DE906
:104F0000F04740F63835DDE90C4200EBC001C2F253
:104F1000000505EB0111C1E90242012200244A8487
:104F200081F8534081F8834040F68021DDE910ECA0
:104F3000DDE90E98DDE90A6ADDE90837C2F2000111
:104F4000582410FB0410C0E90237C0E9046AC0E924
:104F50000E98C0E910EC80F84820BDE8F047704793
:104F60002DE9F04F85B0064601284FF0010000F210
:104F7000A780002900F0A480002A00F0A180002B67
:104F800000F09E800E9F002F00F09A800F9F002F50
:104F900000F09680109D002D00F092800496119EE6
:104FA000002E00F08D80C868CDE90232884601F0FD
:104FB00055FF9FED450B55EC104B22462B4601F05B
:104FC000F3FF41EC100B01F0FFFD0746D8F810008D
:104FD0000E4601F043FF22462B4601F0E5FF41EC6F
:104FE000100B01F0F1FD8346D8F81400894601F05A
:104FF00035FF22462B4601F0D7FF41EC100B01F0A4
:10500000E3FD80460F988A46C0E900761098019724
:10501000C0E900B911980096C0E9008A4AF6FF601D
:10502000CFF6DA503F1866F100061BEB000345F699
:10503000FF5569F1000418EB0001CFF6B5356AF1B0
:105040000002781B76F1FF304FF0010038D34FF0AB
:10505000FF3C5B1B74EB0C0332D3491B039F72EBC9
:105060000C012DD30520ABFB000109EB8902114493
:10507000032200230024FBF799F94542049E4FF0D8
:1050800014028C41A8FB0223012E1CBF0C460546CE
:105090000AEB8A0003EB8001104609220023FBF78C
:1050A00085F9DDE900630246C7E90036029B521B21
:1050B000C3E900540E9B4FF00000A141C3E9002159
:1050C00005B0BDE8F08F00BF753F6A56DF55AD3FB4
:1050D000012888BF704740F63431C2F20001142223
:1050E0000A5440F63231C2F2000100220A5440F65E
:1050F0003031C2F2000101220A5470472DE9F04F0D
:1051000081B040F65C1840F6141041F20001C2F282
:105110000008C2F20000C4F20201C8E90001012047
:10512000A8F8080040F6CC000025C2F2000088F87C
:105130008A50A8F88C50C8E924010220A8F89800E9
:1051400040F63430C2F2000041F2144188F88E502B
:1051500088F81A51A8F81C51018040F63230C2F28A
:105160000000058040F6303040F6383640F68029A1
:10517000C2F2000040F20111C2F2000644F2506790
:10518000C2F200094FF0580A002488F81E5101802D
:105190000020002141F00403321833543030013133
:1051A0009028C2E902551761C2E906551562958437
:1051B000F0D104FB0A90582104F1010BFBF728FB06
:1051C0009036002C5C46E3D040F6141008F14A01FA
:1051D000C2F200004022FEF76BFCD8F8900008F104
:1051E000DA014022FEF764FC0020002108EB0102F6
:1051F0009031902982F88A00A2F88C00F6D001B094
:10520000BDE8F08F2DE9F04F8DB040F2B256C2F2FA
:1052100000063078002800F0AA8040F27050C2F2F8
:10522000000000784C38262800F2A180DFE810F05A
:1052300027009F009F009F009F009F0027009F0066
:105240009F009F009F009F009F009F009F009F0066
:105250009F009F009F009F009F009F009F009F0056
:105260009F009F009F009F009F009F009F009F0046
:1052700027009F009F009F009F009F00270040F293
:105280007054C2F2000447F22A61C0F600012046C1
:10529000FBF7EAF908B101250DE040F2705047F242
:1052A0002F61C2F20000C0F60001FBF7DDF90546F0
:1052B000002818BF0125FBF755FD10B1002D00F0A7
:1052C00056800020307040F2B050C2F200000088DA
:1052D0000428C0F04C8020784C38262800F2478003
:1052E00000274C24DFE800F01643434343431443B4
:1052F000434343434343434343434343434343437E
:10530000434343434343434316434343434314000C
:105310000127522440F2705047F22A61C2F2000085
:10532000C0F60001FBF7A0F960B940F2705047F2F7
:105330002F61C2F20000C0F60001FBF795F90028CA
:1053400000F07485FBF708FD0FF65C4240F2B450A4
:10535000DFF8541CD2E90137D2E90362C2F200003F
:1053600080E88A00C0E903621321FFF783FDFBF7A1
:10537000F9FC10B10DB0BDE8F08F40F65C10C2F240
:10538000000040F6343400F1490100F14E0700F10D
:10539000090C00F10E08C2F200044FF0000905915B
:1053A00015E003208BF82000059804F1900C40F6DE
:1053B0003434B9F1000F09F1010900F1900007F14F
:1053C000900708F19008C2F200040590D2D158224B
:1053D00040F6802109FB02F0C2F20001085C09FBE3
:1053E000021B08B1012104E09BF84810002918BFF6
:1053F000012140F6383209EBC906C2F2000202EB85
:105400000615D9B995F8202062B995F822304BB924
:1054100040F63233C2F2000313F80930002B00F0DB
:10542000AD8300BF51B940F63231C2F2000111F82C
:10543000091001F0FE03022B62D100BF90B99BF866
:10544000480078B940F63230C2F2000010F8090086
:10545000022807D19BF84B00002804BF01208BF8DD
:10546000000000BF9BF8000064460495A8B99BF8B3
:10547000480090B10BF138030FCB0BF1280C8CE8EE
:105480000F0000208BF85400CBF84800FDF77CFF9C
:10549000CBF8500005208BF800009BF80000013885
:1054A000072800F2C58240F65C12C2F2000202EB4D
:1054B000061ADFE810F0080061018900A900480021
:1054C000CF011C02190149F23E210020C0F2050162
:1054D0008AF88A004AF80A1F0421224612F8013F7E
:1054E00001391844FAD18AF804005FFA89F00521DD
:1054F00000F012FFFDF748FFCBF84C00022080E0DF
:105500004FF000033AB995F8220000281EBF85F835
:1055100022300120288495F82000AB46012908BFDD
:10552000002800F0B282BE46012908BF002840F0E2
:10553000C08240F63230C2F2000000F80930142078
:1055400004F80900B5E2002203978AF88A204AF29B
:105550003E33DBE90A01C0F605034AF80A3F04239B
:10556000274600BF17F8016F013B3244FAD18AF891
:1055700004200022434600BFC2F1200620FA02F7B1
:1055800001FA06F63743B2F1200602F1080258BFCD
:1055900021FA06F7402A03F8017FEDD10020082107
:1055A000424600BF12F8013F01391844FAD18AF887
:1055B0000D005FFA89F00E2100F0AEFEFDF7E4FE6B
:1055C000CBF84C000620D2E149F23E210020C0F287
:1055D00006018AF88A004AF80A1F0421224600BF01
:1055E00012F8013F01391844FAD18AF804005FFA31
:1055F00089F0052100F090FEFDF7C6FECBF84C00C7
:1056000004208BF8000013E203979AF88A00002820
:1056100000F0B181BAF88C000E2840F0AC810AF19C
:105620004A0001783E2940F0A6819AF84B10922951
:1056300040F0A1819AF84C10062940F09C81059B0E
:105640000021042213F8017F013A3944FAD19AF873
:105650004E20C9B2914240F08E819AF84D70A7B1A8
:10566000BAF88C10BA1D8A4240F08581039B002253
:10567000394600BF13F8016F01393244FAD138447A
:105680004079D1B2814240F07681039A0020002116
:10569000002300BF12F8017FC0F1200627FA06F6AA
:1056A000B0F1200C58BF07FA0CF607FA00F700F12A
:1056B000080058BF00273343402841EA0701E9D1D9
:1056C000049A012082F883000020CBE90813C2E984
:1056D0001E138AF88A00ABF849008BF84B0082F859
:1056E000550082F8850042E19AF88A003E4600287B
:1056F00000F05681BAF88C000D2840F051810AF173
:105700004A0001783E2940F04B819AF84B10A329BA
:1057100040F046819AF84C10062940F04181059BE3
:105720000021042213F8017F013A3944FAD19AF892
:105730004E20C9B2914240F033819AF84DC0BCF17D
:10574000000F14D0BAF88C100CF106028A4240F017
:10575000278100223346614613F8017F01393A441C
:10576000FAD160444079D1B2814240F019810020E1
:105770008AF88A000121B4E003979AF88A00002889
:1057800000F02381BAF88C000E2840F01E810AF147
:105790004A0001783E2940F018819AF84B1092296E
:1057A00040F013819AF84C10052940F00E81059BBA
:1057B0000021042213F8017F013A3944FAD19AF802
:1057C0004E20C9B2914240F000819AF84D70A7B1C5
:1057D000BAF88C10BA1D8A4240F0F780039B002271
:1057E000394600BF13F8016F01393244FAD1384409
:1057F0004079D1B2814240F0E880039A0020002134
:10580000002300BF12F8017FC0F1200627FA06F638
:10581000B0F1200C58BF07FA0CF607FA00F700F1B8
:10582000080058BF00273343402841EA0701E9D167
:10583000049A012082F853000020CBE90613C2E944
:1058400012138AF88A000321039F8BF800108BF84B
:105850005400EDE09AF88A003E46002800F0CA8025
:10586000BAF88C000D2840F0C5800AF14A00017892
:105870003E2940F0BF809AF84B10A32940F0BA802F
:105880009AF84C10052940F0B580059B00210422B0
:1058900013F8017F013A3944FAD19AF84E20C9B27F
:1058A000914240F0A7809AF84DC0BCF1000F14D08F
:1058B000BAF88C100CF106028A4240F09B8000225C
:1058C0003346614613F8017F01393A44FAD1604406
:1058D0004079D1B2814240F08D80002007218AF8C2
:1058E0008A008BF800108BF854003746A0E00022A5
:1058F00003978AF88A204AF23E33DBE90C01C0F6AE
:1059000006034AF80A3F0423274600BF17F8016F31
:10591000013B3244FAD18AF804200022434600BFFA
:10592000C2F1200620FA02F701FA06F63743B2F177
:10593000200602F1080258BF21FA06F7402A03F8B0
:10594000017FEDD100200821424600BF12F8013F3F
:1059500001391844FAD18AF80D005FFA89F00E2156
:1059600000F0DAFCFDF710FDCBF84C000820039F97
:105970008BF800005CE0FDF707FDDBF84C10039F9F
:10598000401A1E2854D300228AF88A209BF854001B
:105990000130C1B20B298BF854003FD2032030E60E
:1059A000FDF7F2FCDBF84C103746401A1E283FD3B7
:1059B00000228AF88A209BF854000130C1B20B29DA
:1059C0008BF854002AD207201BE6FDF7DDFCDBF83C
:1059D0004C10039F401A1E282AD300228AF88A20DE
:1059E0009BF854000130C1B20B298BF8540015D23A
:1059F000012006E6FDF7C8FCDBF84C103746401ADC
:105A00001E2815D300228AF88A209BF85400013002
:105A1000C1B20B298BF85400C0F0BB80049901205F
:105A20008BF84B0081F8550081F885008BF8002039
:105A30009BF8000000287FF4B7AC9BF848000028D2
:105A40007FF4B2AC40F63230C2F2000010F8090028
:105A500000F0FE0002287FF4A7AC40F632310020AF
:105A6000C2F2000140F6303201F809000121C2F211
:105A7000000202F8091040F63431C2F2000114228B
:105A800001F809208BF84B008EE440F63032C2F268
:105A9000000212F80920012A7FF445AD0320ABF87B
:105AA000200040F63030C2F200000221BE4600F86D
:105AB000091040F65C10C2F2000000EB061A9AF8DA
:105AC0008A006446002800F0B7809BF82000042874
:105AD00040F0B2809AF84C009BF80010884240F0E9
